{
  "contractName": "PasswordManager",
  "abi": [
    {
      "inputs": [],
      "name": "name",
      "outputs": [
        {
          "internalType": "string",
          "name": "",
          "type": "string"
        }
      ],
      "stateMutability": "view",
      "type": "function",
      "constant": true
    },
    {
      "inputs": [
        {
          "internalType": "string",
          "name": "_website",
          "type": "string"
        },
        {
          "internalType": "string",
          "name": "_username",
          "type": "string"
        },
        {
          "internalType": "string",
          "name": "_password",
          "type": "string"
        }
      ],
      "name": "setCredentials",
      "outputs": [],
      "stateMutability": "nonpayable",
      "type": "function"
    },
    {
      "inputs": [
        {
          "internalType": "string",
          "name": "_website",
          "type": "string"
        }
      ],
      "name": "getCredentials",
      "outputs": [
        {
          "components": [
            {
              "internalType": "string",
              "name": "username",
              "type": "string"
            },
            {
              "internalType": "string",
              "name": "password",
              "type": "string"
            }
          ],
          "internalType": "struct PasswordManager.userInfo",
          "name": "",
          "type": "tuple"
        }
      ],
      "stateMutability": "view",
      "type": "function",
      "constant": true
    }
  ],
  "bytecode": "0x60806040526040518060400160405280600481526020017f6e69636b000000000000000000000000000000000000000000000000000000008152506001908051906020019061004f929190610062565b5034801561005c57600080fd5b50610165565b82805461006e90610134565b90600052602060002090601f01602090048101928261009057600085556100d7565b82601f106100a957805160ff19168380011785556100d7565b828001600101855582156100d7579182015b828111156100d65782518255916020019190600101906100bb565b5b5090506100e491906100e8565b5090565b5b808211156101015760008160009055506001016100e9565b5090565b7f4e487b7100000000000000000000000000000000000000000000000000000000600052602260045260246000fd5b6000600282049050600182168061014c57607f821691505b60208210810361015f5761015e610105565b5b50919050565b6108d1806101746000396000f3fe608060405234801561001057600080fd5b50600436106100415760003560e01c806306fdde0314610046578063c4ac76f914610064578063f6b1a22b14610080575b600080fd5b61004e6100b0565b60405161005b91906104dd565b60405180910390f35b61007e60048036038101906100799190610648565b61013e565b005b61009a600480360381019061009591906106ef565b6101ef565b6040516100a791906107c6565b60405180910390f35b600180546100bd90610817565b80601f01602080910402602001604051908101604052809291908181526020018280546100e990610817565b80156101365780601f1061010b57610100808354040283529160200191610136565b820191906000526020600020905b81548152906001019060200180831161011957829003601f168201915b505050505081565b6040518060400160405280838152602001828152506000803373ffffffffffffffffffffffffffffffffffffffff1673ffffffffffffffffffffffffffffffffffffffff1681526020019081526020016000208460405161019f9190610884565b908152602001604051809103902060008201518160000190805190602001906101c9929190610387565b5060208201518160010190805190602001906101e6929190610387565b50905050505050565b6101f761040d565b6000803373ffffffffffffffffffffffffffffffffffffffff1673ffffffffffffffffffffffffffffffffffffffff168152602001908152602001600020826040516102439190610884565b908152602001604051809103902060405180604001604052908160008201805461026c90610817565b80601f016020809104026020016040519081016040528092919081815260200182805461029890610817565b80156102e55780601f106102ba576101008083540402835291602001916102e5565b820191906000526020600020905b8154815290600101906020018083116102c857829003601f168201915b505050505081526020016001820180546102fe90610817565b80601f016020809104026020016040519081016040528092919081815260200182805461032a90610817565b80156103775780601f1061034c57610100808354040283529160200191610377565b820191906000526020600020905b81548152906001019060200180831161035a57829003601f168201915b5050505050815250509050919050565b82805461039390610817565b90600052602060002090601f0160209004810192826103b557600085556103fc565b82601f106103ce57805160ff19168380011785556103fc565b828001600101855582156103fc579182015b828111156103fb5782518255916020019190600101906103e0565b5b5090506104099190610427565b5090565b604051806040016040528060608152602001606081525090565b5b80821115610440576000816000905550600101610428565b5090565b600081519050919050565b600082825260208201905092915050565b60005b8381101561047e578082015181840152602081019050610463565b8381111561048d576000848401525b50505050565b6000601f19601f8301169050919050565b60006104af82610444565b6104b9818561044f565b93506104c9818560208601610460565b6104d281610493565b840191505092915050565b600060208201905081810360008301526104f781846104a4565b905092915050565b6000604051905090565b600080fd5b600080fd5b600080fd5b600080fd5b7f4e487b7100000000000000000000000000000000000000000000000000000000600052604160045260246000fd5b61055582610493565b810181811067ffffffffffffffff821117156105745761057361051d565b5b80604052505050565b60006105876104ff565b9050610593828261054c565b919050565b600067ffffffffffffffff8211156105b3576105b261051d565b5b6105bc82610493565b9050602081019050919050565b82818337600083830152505050565b60006105eb6105e684610598565b61057d565b90508281526020810184848401111561060757610606610518565b5b6106128482856105c9565b509392505050565b600082601f83011261062f5761062e610513565b5b813561063f8482602086016105d8565b91505092915050565b60008060006060848603121561066157610660610509565b5b600084013567ffffffffffffffff81111561067f5761067e61050e565b5b61068b8682870161061a565b935050602084013567ffffffffffffffff8111156106ac576106ab61050e565b5b6106b88682870161061a565b925050604084013567ffffffffffffffff8111156106d9576106d861050e565b5b6106e58682870161061a565b9150509250925092565b60006020828403121561070557610704610509565b5b600082013567ffffffffffffffff8111156107235761072261050e565b5b61072f8482850161061a565b91505092915050565b600082825260208201905092915050565b600061075482610444565b61075e8185610738565b935061076e818560208601610460565b61077781610493565b840191505092915050565b6000604083016000830151848203600086015261079f8282610749565b915050602083015184820360208601526107b98282610749565b9150508091505092915050565b600060208201905081810360008301526107e08184610782565b905092915050565b7f4e487b7100000000000000000000000000000000000000000000000000000000600052602260045260246000fd5b6000600282049050600182168061082f57607f821691505b602082108103610842576108416107e8565b5b50919050565b600081905092915050565b600061085e82610444565b6108688185610848565b9350610878818560208601610460565b80840191505092915050565b60006108908284610853565b91508190509291505056fea2646970667358221220dbafe7624bee21fa2e18e3e146089c46073d760fa29dc4f282d5d03581944f9f64736f6c634300080d0033",
  "immutableReferences": {},
  "source": "pragma solidity ^0.8.13;\n\ncontract PasswordManager{\n\n    mapping(address => mapping(string => userInfo)) private userMap;\n\n    string public name = 'nick';\n\n    struct userInfo{\n        string username;\n        string password;\n    }\n\n    function setCredentials(\n        string memory _website, \n        string memory _username, \n        string memory _password\n    ) public {\n        userMap[msg.sender][_website] = userInfo(_username, _password);\n\n    }\n\n    function getCredentials(\n        string memory _website\n    ) public view returns(userInfo memory){\n        return userMap[msg.sender][_website];\n    }\n}\n",
  "sourcePath": "/Users/nicholassaros/Blockchain/PasswordManager/password-react/src/truffle/contracts/PasswordManager.sol",
  "compiler": {
    "name": "solc",
    "version": "0.8.13+commit.abaa5c0e.Emscripten.clang"
  },
  "schemaVersion": "3.4.5",
  "updatedAt": "2022-04-12T20:46:08.798Z",
  "networkType": "ethereum",
  "devdoc": {
    "kind": "dev",
    "methods": {},
    "version": 1
  },
  "userdoc": {
    "kind": "user",
    "methods": {},
    "version": 1
  }
}